{
  "contractName": "School",
  "abi": [
    {
      "anonymous": false,
      "inputs": [
        {
          "indexed": false,
          "internalType": "uint256",
          "name": "id",
          "type": "uint256"
        },
        {
          "indexed": false,
          "internalType": "string",
          "name": "name",
          "type": "string"
        },
        {
          "indexed": false,
          "internalType": "string",
          "name": "grade",
          "type": "string"
        }
      ],
      "name": "StudentAdded",
      "type": "event"
    },
    {
      "inputs": [],
      "name": "studentCount",
      "outputs": [
        {
          "internalType": "uint256",
          "name": "",
          "type": "uint256"
        }
      ],
      "stateMutability": "view",
      "type": "function",
      "constant": true
    },
    {
      "inputs": [
        {
          "internalType": "uint256",
          "name": "",
          "type": "uint256"
        }
      ],
      "name": "students",
      "outputs": [
        {
          "internalType": "uint256",
          "name": "id",
          "type": "uint256"
        },
        {
          "internalType": "string",
          "name": "name",
          "type": "string"
        },
        {
          "internalType": "string",
          "name": "grade",
          "type": "string"
        }
      ],
      "stateMutability": "view",
      "type": "function",
      "constant": true
    },
    {
      "inputs": [
        {
          "internalType": "string",
          "name": "_name",
          "type": "string"
        },
        {
          "internalType": "string",
          "name": "_grade",
          "type": "string"
        }
      ],
      "name": "addStudent",
      "outputs": [],
      "stateMutability": "nonpayable",
      "type": "function"
    },
    {
      "inputs": [
        {
          "internalType": "uint256",
          "name": "_id",
          "type": "uint256"
        },
        {
          "internalType": "string",
          "name": "_name",
          "type": "string"
        },
        {
          "internalType": "string",
          "name": "_grade",
          "type": "string"
        }
      ],
      "name": "updateStudent",
      "outputs": [],
      "stateMutability": "nonpayable",
      "type": "function"
    },
    {
      "inputs": [
        {
          "internalType": "uint256",
          "name": "_id",
          "type": "uint256"
        }
      ],
      "name": "deleteStudent",
      "outputs": [],
      "stateMutability": "nonpayable",
      "type": "function"
    },
    {
      "inputs": [
        {
          "internalType": "uint256",
          "name": "_id",
          "type": "uint256"
        }
      ],
      "name": "getStudent",
      "outputs": [
        {
          "internalType": "uint256",
          "name": "",
          "type": "uint256"
        },
        {
          "internalType": "string",
          "name": "",
          "type": "string"
        },
        {
          "internalType": "string",
          "name": "",
          "type": "string"
        }
      ],
      "stateMutability": "view",
      "type": "function",
      "constant": true
    }
  ],
  "bytecode": "0x608060405234801561001057600080fd5b50610b8d806100206000396000f3fe608060405234801561001057600080fd5b50600436106100625760003560e01c806306ead22e14610067578063642f91631461009957806378549830146100cb578063b645307d146100e7578063e27bb1f714610103578063e581f9ee1461011f575b600080fd5b610081600480360381019061007c91906107ae565b61013d565b60405161009093929190610919565b60405180910390f35b6100b360048036038101906100ae91906107ae565b610277565b6040516100c293929190610919565b60405180910390f35b6100e560048036038101906100e091906107d7565b6103e8565b005b61010160048036038101906100fc91906107ae565b610486565b005b61011d60048036038101906101189190610742565b61050b565b005b6101276105dc565b60405161013491906108fe565b60405180910390f35b600060205280600052604060002060009150905080600001549080600101805461016690610a27565b80601f016020809104026020016040519081016040528092919081815260200182805461019290610a27565b80156101df5780601f106101b4576101008083540402835291602001916101df565b820191906000526020600020905b8154815290600101906020018083116101c257829003601f168201915b5050505050908060020180546101f490610a27565b80601f016020809104026020016040519081016040528092919081815260200182805461022090610a27565b801561026d5780601f106102425761010080835404028352916020019161026d565b820191906000526020600020905b81548152906001019060200180831161025057829003601f168201915b5050505050905083565b60006060806000806000868152602001908152602001600020604051806060016040529081600082015481526020016001820180546102b590610a27565b80601f01602080910402602001604051908101604052809291908181526020018280546102e190610a27565b801561032e5780601f106103035761010080835404028352916020019161032e565b820191906000526020600020905b81548152906001019060200180831161031157829003601f168201915b5050505050815260200160028201805461034790610a27565b80601f016020809104026020016040519081016040528092919081815260200182805461037390610a27565b80156103c05780601f10610395576101008083540402835291602001916103c0565b820191906000526020600020905b8154815290600101906020018083116103a357829003601f168201915b5050505050815250509050806000015181602001518260400151935093509350509193909250565b60015483111561042d576040517f08c379a0000000000000000000000000000000000000000000000000000000008152600401610424906108de565b60405180910390fd5b8160008085815260200190815260200160002060010190805190602001906104569291906105e2565b508060008085815260200190815260200160002060020190805190602001906104809291906105e2565b50505050565b6001548111156104cb576040517f08c379a00000000000000000000000000000000000000000000000000000000081526004016104c2906108de565b60405180910390fd5b6000808281526020019081526020016000206000808201600090556001820160006104f69190610668565b6002820160006105069190610668565b505050565b6001600081548092919061051e90610a59565b91905055506040518060600160405280600154815260200183815260200182815250600080600154815260200190815260200160002060008201518160000155602082015181600101908051906020019061057a9291906105e2565b5060408201518160020190805190602001906105979291906105e2565b509050507f8f2389bb456b93c3e9fe508739c041611b37c490e217f5aa157162a700ec4df760015483836040516105d093929190610919565b60405180910390a15050565b60015481565b8280546105ee90610a27565b90600052602060002090601f0160209004810192826106105760008555610657565b82601f1061062957805160ff1916838001178555610657565b82800160010185558215610657579182015b8281111561065657825182559160200191906001019061063b565b5b50905061066491906106a8565b5090565b50805461067490610a27565b6000825580601f1061068657506106a5565b601f0160209004906000526020600020908101906106a491906106a8565b5b50565b5b808211156106c15760008160009055506001016106a9565b5090565b60006106d86106d38461098f565b61095e565b9050828152602081018484840111156106f057600080fd5b6106fb8482856109e5565b509392505050565b600082601f83011261071457600080fd5b81356107248482602086016106c5565b91505092915050565b60008135905061073c81610b40565b92915050565b6000806040838503121561075557600080fd5b600083013567ffffffffffffffff81111561076f57600080fd5b61077b85828601610703565b925050602083013567ffffffffffffffff81111561079857600080fd5b6107a485828601610703565b9150509250929050565b6000602082840312156107c057600080fd5b60006107ce8482850161072d565b91505092915050565b6000806000606084860312156107ec57600080fd5b60006107fa8682870161072d565b935050602084013567ffffffffffffffff81111561081757600080fd5b61082386828701610703565b925050604084013567ffffffffffffffff81111561084057600080fd5b61084c86828701610703565b9150509250925092565b6000610861826109bf565b61086b81856109ca565b935061087b8185602086016109f4565b61088481610b2f565b840191505092915050565b600061089c6017836109ca565b91507f53747564656e7420646f6573206e6f742065786973742e0000000000000000006000830152602082019050919050565b6108d8816109db565b82525050565b600060208201905081810360008301526108f78161088f565b9050919050565b600060208201905061091360008301846108cf565b92915050565b600060608201905061092e60008301866108cf565b81810360208301526109408185610856565b905081810360408301526109548184610856565b9050949350505050565b6000604051905081810181811067ffffffffffffffff8211171561098557610984610b00565b5b8060405250919050565b600067ffffffffffffffff8211156109aa576109a9610b00565b5b601f19601f8301169050602081019050919050565b600081519050919050565b600082825260208201905092915050565b6000819050919050565b82818337600083830152505050565b60005b83811015610a125780820151818401526020810190506109f7565b83811115610a21576000848401525b50505050565b60006002820490506001821680610a3f57607f821691505b60208210811415610a5357610a52610ad1565b5b50919050565b6000610a64826109db565b91507fffffffffffffffffffffffffffffffffffffffffffffffffffffffffffffffff821415610a9757610a96610aa2565b5b600182019050919050565b7f4e487b7100000000000000000000000000000000000000000000000000000000600052601160045260246000fd5b7f4e487b7100000000000000000000000000000000000000000000000000000000600052602260045260246000fd5b7f4e487b7100000000000000000000000000000000000000000000000000000000600052604160045260246000fd5b6000601f19601f8301169050919050565b610b49816109db565b8114610b5457600080fd5b5056fea2646970667358221220994bcb75bd946b11f06ffba3fae00b0ba7d0f2ec74a70950727eb853e43fc29964736f6c63430008000033",
  "immutableReferences": {},
  "source": "// SPDX-License-Identifier: MIT\r\npragma solidity ^0.8.0;\r\n\r\ncontract School {\r\n    struct Student {\r\n        uint id;\r\n        string name;\r\n        string grade;\r\n    }\r\n\r\n    mapping(uint => Student) public students;\r\n    uint public studentCount;\r\n\r\n    // Event to log student creation\r\n    event StudentAdded(uint id, string name, string grade);\r\n\r\n    // Add a new student\r\n    function addStudent(string memory _name, string memory _grade) public {\r\n        studentCount++;\r\n        students[studentCount] = Student(studentCount, _name, _grade);\r\n        emit StudentAdded(studentCount, _name, _grade);\r\n    }\r\n\r\n    // Update an existing student\r\n    function updateStudent(uint _id, string memory _name, string memory _grade) public {\r\n        require(_id <= studentCount, \"Student does not exist.\");\r\n        students[_id].name = _name;\r\n        students[_id].grade = _grade;\r\n    }\r\n\r\n    // Delete a student\r\n    function deleteStudent(uint _id) public {\r\n        require(_id <= studentCount, \"Student does not exist.\");\r\n        delete students[_id];\r\n    }\r\n\r\n    // Get student details\r\n    function getStudent(uint _id) public view returns (uint, string memory, string memory) {\r\n        Student memory s = students[_id];\r\n        return (s.id, s.name, s.grade);\r\n    }\r\n}\r\n",
  "sourcePath": "D:\\Ai\\website\\contracts\\School.sol",
  "compiler": {
    "name": "solc",
    "version": "0.8.0+commit.c7dfd78e.Emscripten.clang"
  },
  "schemaVersion": "3.4.16",
  "updatedAt": "2024-09-06T17:12:16.441Z",
  "networkType": "ethereum",
  "devdoc": {
    "kind": "dev",
    "methods": {},
    "version": 1
  },
  "userdoc": {
    "kind": "user",
    "methods": {},
    "version": 1
  }
}